{
	"ERC20Sale/DITtokensale.sol": {
		"DITSale": {
			"abi": [
				{
					"inputs": [
						{
							"internalType": "address",
							"name": "_token",
							"type": "address"
						}
					],
					"stateMutability": "nonpayable",
					"type": "constructor"
				},
				{
					"inputs": [],
					"name": "PurchaseDIT",
					"outputs": [],
					"stateMutability": "payable",
					"type": "function"
				},
				{
					"inputs": [],
					"name": "TokenOwner",
					"outputs": [
						{
							"internalType": "address",
							"name": "",
							"type": "address"
						}
					],
					"stateMutability": "view",
					"type": "function"
				},
				{
					"inputs": [],
					"name": "paymentReceived",
					"outputs": [],
					"stateMutability": "nonpayable",
					"type": "function"
				},
				{
					"inputs": [],
					"name": "token",
					"outputs": [
						{
							"internalType": "contract ERC20",
							"name": "",
							"type": "address"
						}
					],
					"stateMutability": "view",
					"type": "function"
				},
				{
					"inputs": [],
					"name": "tokenPriceinWei",
					"outputs": [
						{
							"internalType": "uint256",
							"name": "",
							"type": "uint256"
						}
					],
					"stateMutability": "view",
					"type": "function"
				}
			],
			"devdoc": {
				"kind": "dev",
				"methods": {},
				"version": 1
			},
			"evm": {
				"assembly": "    /* \"ERC20Sale/DITtokensale.sol\":298:1051  contract DITSale {... */\n  mstore(0x40, 0x80)\n    /* \"ERC20Sale/DITtokensale.sol\":353:360  1 ether */\n  0x0de0b6b3a7640000\n    /* \"ERC20Sale/DITtokensale.sol\":322:360  uint public  tokenPriceinWei = 1 ether */\n  0x00\n  sstore\n    /* \"ERC20Sale/DITtokensale.sol\":427:531  constructor(address _token) {... */\n  callvalue\n  dup1\n  iszero\n  tag_1\n  jumpi\n  revert(0x00, 0x00)\ntag_1:\n  pop\n  mload(0x40)\n  sub(codesize, bytecodeSize)\n  dup1\n  bytecodeSize\n  dup4\n  codecopy\n  dup2\n  dup2\n  add\n  0x40\n  mstore\n  dup2\n  add\n  swap1\n  tag_2\n  swap2\n  swap1\n  tag_3\n  jump\t// in\ntag_2:\n    /* \"ERC20Sale/DITtokensale.sol\":479:489  msg.sender */\n  caller\n    /* \"ERC20Sale/DITtokensale.sol\":466:476  TokenOwner */\n  0x02\n  0x00\n    /* \"ERC20Sale/DITtokensale.sol\":466:489  TokenOwner = msg.sender */\n  0x0100\n  exp\n  dup2\n  sload\n  dup2\n  0xffffffffffffffffffffffffffffffffffffffff\n  mul\n  not\n  and\n  swap1\n  dup4\n  0xffffffffffffffffffffffffffffffffffffffff\n  and\n  mul\n  or\n  swap1\n  sstore\n  pop\n    /* \"ERC20Sale/DITtokensale.sol\":514:520  _token */\n  dup1\n    /* \"ERC20Sale/DITtokensale.sol\":500:505  token */\n  0x01\n  0x00\n    /* \"ERC20Sale/DITtokensale.sol\":500:521  token = ERC20(_token) */\n  0x0100\n  exp\n  dup2\n  sload\n  dup2\n  0xffffffffffffffffffffffffffffffffffffffff\n  mul\n  not\n  and\n  swap1\n  dup4\n  0xffffffffffffffffffffffffffffffffffffffff\n  and\n  mul\n  or\n  swap1\n  sstore\n  pop\n    /* \"ERC20Sale/DITtokensale.sol\":427:531  constructor(address _token) {... */\n  pop\n    /* \"ERC20Sale/DITtokensale.sol\":298:1051  contract DITSale {... */\n  jump(tag_6)\n    /* \"#utility.yul\":88:205   */\ntag_8:\n    /* \"#utility.yul\":197:198   */\n  0x00\n    /* \"#utility.yul\":194:195   */\n  0x00\n    /* \"#utility.yul\":187:199   */\n  revert\n    /* \"#utility.yul\":334:460   */\ntag_10:\n    /* \"#utility.yul\":371:378   */\n  0x00\n    /* \"#utility.yul\":411:453   */\n  0xffffffffffffffffffffffffffffffffffffffff\n    /* \"#utility.yul\":404:409   */\n  dup3\n    /* \"#utility.yul\":400:454   */\n  and\n    /* \"#utility.yul\":389:454   */\n  swap1\n  pop\n    /* \"#utility.yul\":334:460   */\n  swap2\n  swap1\n  pop\n  jump\t// out\n    /* \"#utility.yul\":466:562   */\ntag_11:\n    /* \"#utility.yul\":503:510   */\n  0x00\n    /* \"#utility.yul\":532:556   */\n  tag_20\n    /* \"#utility.yul\":550:555   */\n  dup3\n    /* \"#utility.yul\":532:556   */\n  tag_10\n  jump\t// in\ntag_20:\n    /* \"#utility.yul\":521:556   */\n  swap1\n  pop\n    /* \"#utility.yul\":466:562   */\n  swap2\n  swap1\n  pop\n  jump\t// out\n    /* \"#utility.yul\":568:690   */\ntag_12:\n    /* \"#utility.yul\":641:665   */\n  tag_22\n    /* \"#utility.yul\":659:664   */\n  dup2\n    /* \"#utility.yul\":641:665   */\n  tag_11\n  jump\t// in\ntag_22:\n    /* \"#utility.yul\":634:639   */\n  dup2\n    /* \"#utility.yul\":631:666   */\n  eq\n    /* \"#utility.yul\":621:684   */\n  tag_23\n  jumpi\n    /* \"#utility.yul\":680:681   */\n  0x00\n    /* \"#utility.yul\":677:678   */\n  0x00\n    /* \"#utility.yul\":670:682   */\n  revert\n    /* \"#utility.yul\":621:684   */\ntag_23:\n    /* \"#utility.yul\":568:690   */\n  pop\n  jump\t// out\n    /* \"#utility.yul\":696:839   */\ntag_13:\n    /* \"#utility.yul\":753:758   */\n  0x00\n    /* \"#utility.yul\":784:790   */\n  dup2\n    /* \"#utility.yul\":778:791   */\n  mload\n    /* \"#utility.yul\":769:791   */\n  swap1\n  pop\n    /* \"#utility.yul\":800:833   */\n  tag_25\n    /* \"#utility.yul\":827:832   */\n  dup2\n    /* \"#utility.yul\":800:833   */\n  tag_12\n  jump\t// in\ntag_25:\n    /* \"#utility.yul\":696:839   */\n  swap3\n  swap2\n  pop\n  pop\n  jump\t// out\n    /* \"#utility.yul\":845:1196   */\ntag_3:\n    /* \"#utility.yul\":915:921   */\n  0x00\n    /* \"#utility.yul\":964:966   */\n  0x20\n    /* \"#utility.yul\":952:961   */\n  dup3\n    /* \"#utility.yul\":943:950   */\n  dup5\n    /* \"#utility.yul\":939:962   */\n  sub\n    /* \"#utility.yul\":935:967   */\n  slt\n    /* \"#utility.yul\":932:1051   */\n  iszero\n  tag_27\n  jumpi\n    /* \"#utility.yul\":970:1049   */\n  tag_28\n  tag_8\n  jump\t// in\ntag_28:\n    /* \"#utility.yul\":932:1051   */\ntag_27:\n    /* \"#utility.yul\":1090:1091   */\n  0x00\n    /* \"#utility.yul\":1115:1179   */\n  tag_29\n    /* \"#utility.yul\":1171:1178   */\n  dup5\n    /* \"#utility.yul\":1162:1168   */\n  dup3\n    /* \"#utility.yul\":1151:1160   */\n  dup6\n    /* \"#utility.yul\":1147:1169   */\n  add\n    /* \"#utility.yul\":1115:1179   */\n  tag_13\n  jump\t// in\ntag_29:\n    /* \"#utility.yul\":1105:1179   */\n  swap2\n  pop\n    /* \"#utility.yul\":1061:1189   */\n  pop\n    /* \"#utility.yul\":845:1196   */\n  swap3\n  swap2\n  pop\n  pop\n  jump\t// out\n    /* \"ERC20Sale/DITtokensale.sol\":298:1051  contract DITSale {... */\ntag_6:\n  dataSize(sub_0)\n  dup1\n  dataOffset(sub_0)\n  0x00\n  codecopy\n  0x00\n  return\nstop\n\nsub_0: assembly {\n        /* \"ERC20Sale/DITtokensale.sol\":298:1051  contract DITSale {... */\n      mstore(0x40, 0x80)\n      jumpi(tag_1, lt(calldatasize, 0x04))\n      shr(0xe0, calldataload(0x00))\n      dup1\n      0x094b9041\n      eq\n      tag_2\n      jumpi\n      dup1\n      0x2b141082\n      eq\n      tag_3\n      jumpi\n      dup1\n      0xd50c4538\n      eq\n      tag_4\n      jumpi\n      dup1\n      0xfc0c546a\n      eq\n      tag_5\n      jumpi\n      dup1\n      0xfc71e97e\n      eq\n      tag_6\n      jumpi\n    tag_1:\n      revert(0x00, 0x00)\n        /* \"ERC20Sale/DITtokensale.sol\":543:992  function PurchaseDIT() public payable {... */\n    tag_2:\n      tag_7\n      tag_8\n      jump\t// in\n    tag_7:\n      stop\n        /* \"ERC20Sale/DITtokensale.sol\":392:418  address public  TokenOwner */\n    tag_3:\n      callvalue\n      dup1\n      iszero\n      tag_9\n      jumpi\n      revert(0x00, 0x00)\n    tag_9:\n      pop\n      tag_10\n      tag_11\n      jump\t// in\n    tag_10:\n      mload(0x40)\n      tag_12\n      swap2\n      swap1\n      tag_13\n      jump\t// in\n    tag_12:\n      mload(0x40)\n      dup1\n      swap2\n      sub\n      swap1\n      return\n        /* \"ERC20Sale/DITtokensale.sol\":1004:1048  function paymentReceived() public virtual {} */\n    tag_4:\n      callvalue\n      dup1\n      iszero\n      tag_14\n      jumpi\n      revert(0x00, 0x00)\n    tag_14:\n      pop\n      tag_15\n      tag_16\n      jump\t// in\n    tag_15:\n      stop\n        /* \"ERC20Sale/DITtokensale.sol\":367:385  ERC20 public token */\n    tag_5:\n      callvalue\n      dup1\n      iszero\n      tag_17\n      jumpi\n      revert(0x00, 0x00)\n    tag_17:\n      pop\n      tag_18\n      tag_19\n      jump\t// in\n    tag_18:\n      mload(0x40)\n      tag_20\n      swap2\n      swap1\n      tag_21\n      jump\t// in\n    tag_20:\n      mload(0x40)\n      dup1\n      swap2\n      sub\n      swap1\n      return\n        /* \"ERC20Sale/DITtokensale.sol\":322:360  uint public  tokenPriceinWei = 1 ether */\n    tag_6:\n      callvalue\n      dup1\n      iszero\n      tag_22\n      jumpi\n      revert(0x00, 0x00)\n    tag_22:\n      pop\n      tag_23\n      tag_24\n      jump\t// in\n    tag_23:\n      mload(0x40)\n      tag_25\n      swap2\n      swap1\n      tag_26\n      jump\t// in\n    tag_25:\n      mload(0x40)\n      dup1\n      swap2\n      sub\n      swap1\n      return\n        /* \"ERC20Sale/DITtokensale.sol\":543:992  function PurchaseDIT() public payable {... */\n    tag_8:\n        /* \"ERC20Sale/DITtokensale.sol\":613:628  tokenPriceinWei */\n      sload(0x00)\n        /* \"ERC20Sale/DITtokensale.sol\":600:609  msg.value */\n      callvalue\n        /* \"ERC20Sale/DITtokensale.sol\":600:628  msg.value >= tokenPriceinWei */\n      lt\n      iszero\n        /* \"ERC20Sale/DITtokensale.sol\":592:649  require(msg.value >= tokenPriceinWei, \"Not enough ether\") */\n      tag_28\n      jumpi\n      mload(0x40)\n      0x08c379a000000000000000000000000000000000000000000000000000000000\n      dup2\n      mstore\n      0x04\n      add\n      tag_29\n      swap1\n      tag_30\n      jump\t// in\n    tag_29:\n      mload(0x40)\n      dup1\n      swap2\n      sub\n      swap1\n      revert\n    tag_28:\n        /* \"ERC20Sale/DITtokensale.sol\":660:679  uint tokenToTranfer */\n      0x00\n        /* \"ERC20Sale/DITtokensale.sol\":694:709  tokenPriceinWei */\n      sload(0x00)\n        /* \"ERC20Sale/DITtokensale.sol\":682:691  msg.value */\n      callvalue\n        /* \"ERC20Sale/DITtokensale.sol\":682:709  msg.value / tokenPriceinWei */\n      tag_31\n      swap2\n      swap1\n      tag_32\n      jump\t// in\n    tag_31:\n        /* \"ERC20Sale/DITtokensale.sol\":660:709  uint tokenToTranfer = msg.value / tokenPriceinWei */\n      swap1\n      pop\n        /* \"ERC20Sale/DITtokensale.sol\":720:734  uint remainder */\n      0x00\n        /* \"ERC20Sale/DITtokensale.sol\":766:781  tokenPriceinWei */\n      sload(0x00)\n        /* \"ERC20Sale/DITtokensale.sol\":749:763  tokenToTranfer */\n      dup3\n        /* \"ERC20Sale/DITtokensale.sol\":749:781  tokenToTranfer * tokenPriceinWei */\n      tag_33\n      swap2\n      swap1\n      tag_34\n      jump\t// in\n    tag_33:\n        /* \"ERC20Sale/DITtokensale.sol\":737:746  msg.value */\n      callvalue\n        /* \"ERC20Sale/DITtokensale.sol\":737:781  msg.value - tokenToTranfer * tokenPriceinWei */\n      tag_35\n      swap2\n      swap1\n      tag_36\n      jump\t// in\n    tag_35:\n        /* \"ERC20Sale/DITtokensale.sol\":720:781  uint remainder = msg.value - tokenToTranfer * tokenPriceinWei */\n      swap1\n      pop\n        /* \"ERC20Sale/DITtokensale.sol\":792:797  token */\n      0x01\n      0x00\n      swap1\n      sload\n      swap1\n      0x0100\n      exp\n      swap1\n      div\n      0xffffffffffffffffffffffffffffffffffffffff\n      and\n        /* \"ERC20Sale/DITtokensale.sol\":792:810  token.TransferFrom */\n      0xffffffffffffffffffffffffffffffffffffffff\n      and\n      0xc0d84ce5\n        /* \"ERC20Sale/DITtokensale.sol\":811:821  TokenOwner */\n      0x02\n      0x00\n      swap1\n      sload\n      swap1\n      0x0100\n      exp\n      swap1\n      div\n      0xffffffffffffffffffffffffffffffffffffffff\n      and\n        /* \"ERC20Sale/DITtokensale.sol\":822:832  msg.sender */\n      caller\n        /* \"ERC20Sale/DITtokensale.sol\":858:863  token */\n      0x01\n      0x00\n      swap1\n      sload\n      swap1\n      0x0100\n      exp\n      swap1\n      div\n      0xffffffffffffffffffffffffffffffffffffffff\n      and\n        /* \"ERC20Sale/DITtokensale.sol\":858:872  token.decimals */\n      0xffffffffffffffffffffffffffffffffffffffff\n      and\n      0x313ce567\n        /* \"ERC20Sale/DITtokensale.sol\":858:874  token.decimals() */\n      mload(0x40)\n      dup2\n      0xffffffff\n      and\n      0xe0\n      shl\n      dup2\n      mstore\n      0x04\n      add\n      0x20\n      mload(0x40)\n      dup1\n      dup4\n      sub\n      dup2\n      dup7\n      gas\n      staticcall\n      iszero\n      dup1\n      iszero\n      tag_38\n      jumpi\n      returndatacopy(0x00, 0x00, returndatasize)\n      revert(0x00, returndatasize)\n    tag_38:\n      pop\n      pop\n      pop\n      pop\n      mload(0x40)\n      returndatasize\n      not(0x1f)\n      0x1f\n      dup3\n      add\n      and\n      dup3\n      add\n      dup1\n      0x40\n      mstore\n      pop\n      dup2\n      add\n      swap1\n      tag_39\n      swap2\n      swap1\n      tag_40\n      jump\t// in\n    tag_39:\n        /* \"ERC20Sale/DITtokensale.sol\":852:854  10 */\n      0x0a\n        /* \"ERC20Sale/DITtokensale.sol\":852:874  10 ** token.decimals() */\n      tag_41\n      swap2\n      swap1\n      tag_42\n      jump\t// in\n    tag_41:\n        /* \"ERC20Sale/DITtokensale.sol\":835:849  tokenToTranfer */\n      dup7\n        /* \"ERC20Sale/DITtokensale.sol\":835:874  tokenToTranfer * 10 ** token.decimals() */\n      tag_43\n      swap2\n      swap1\n      tag_34\n      jump\t// in\n    tag_43:\n        /* \"ERC20Sale/DITtokensale.sol\":792:875  token.TransferFrom(TokenOwner,msg.sender , tokenToTranfer * 10 ** token.decimals()) */\n      mload(0x40)\n      dup5\n      0xffffffff\n      and\n      0xe0\n      shl\n      dup2\n      mstore\n      0x04\n      add\n      tag_44\n      swap4\n      swap3\n      swap2\n      swap1\n      tag_45\n      jump\t// in\n    tag_44:\n      0x20\n      mload(0x40)\n      dup1\n      dup4\n      sub\n      dup2\n      0x00\n      dup8\n      gas\n      call\n      iszero\n      dup1\n      iszero\n      tag_47\n      jumpi\n      returndatacopy(0x00, 0x00, returndatasize)\n      revert(0x00, returndatasize)\n    tag_47:\n      pop\n      pop\n      pop\n      pop\n      mload(0x40)\n      returndatasize\n      not(0x1f)\n      0x1f\n      dup3\n      add\n      and\n      dup3\n      add\n      dup1\n      0x40\n      mstore\n      pop\n      dup2\n      add\n      swap1\n      tag_48\n      swap2\n      swap1\n      tag_49\n      jump\t// in\n    tag_48:\n      pop\n        /* \"ERC20Sale/DITtokensale.sol\":895:905  msg.sender */\n      caller\n        /* \"ERC20Sale/DITtokensale.sol\":886:915  payable (msg.sender).transfer */\n      0xffffffffffffffffffffffffffffffffffffffff\n      and\n        /* \"ERC20Sale/DITtokensale.sol\":886:926  payable (msg.sender).transfer(remainder) */\n      0x08fc\n        /* \"ERC20Sale/DITtokensale.sol\":916:925  remainder */\n      dup3\n        /* \"ERC20Sale/DITtokensale.sol\":886:926  payable (msg.sender).transfer(remainder) */\n      swap1\n      dup2\n      iszero\n      mul\n      swap1\n      mload(0x40)\n      0x00\n      mload(0x40)\n      dup1\n      dup4\n      sub\n      dup2\n      dup6\n      dup9\n      dup9\n      call\n      swap4\n      pop\n      pop\n      pop\n      pop\n      iszero\n      dup1\n      iszero\n      tag_51\n      jumpi\n      returndatacopy(0x00, 0x00, returndatasize)\n      revert(0x00, returndatasize)\n    tag_51:\n      pop\n        /* \"ERC20Sale/DITtokensale.sol\":967:984  paymentReceived() */\n      tag_52\n        /* \"ERC20Sale/DITtokensale.sol\":967:982  paymentReceived */\n      tag_16\n        /* \"ERC20Sale/DITtokensale.sol\":967:984  paymentReceived() */\n      jump\t// in\n    tag_52:\n        /* \"ERC20Sale/DITtokensale.sol\":581:992  {... */\n      pop\n      pop\n        /* \"ERC20Sale/DITtokensale.sol\":543:992  function PurchaseDIT() public payable {... */\n      jump\t// out\n        /* \"ERC20Sale/DITtokensale.sol\":392:418  address public  TokenOwner */\n    tag_11:\n      0x02\n      0x00\n      swap1\n      sload\n      swap1\n      0x0100\n      exp\n      swap1\n      div\n      0xffffffffffffffffffffffffffffffffffffffff\n      and\n      dup2\n      jump\t// out\n        /* \"ERC20Sale/DITtokensale.sol\":1004:1048  function paymentReceived() public virtual {} */\n    tag_16:\n      jump\t// out\n        /* \"ERC20Sale/DITtokensale.sol\":367:385  ERC20 public token */\n    tag_19:\n      0x01\n      0x00\n      swap1\n      sload\n      swap1\n      0x0100\n      exp\n      swap1\n      div\n      0xffffffffffffffffffffffffffffffffffffffff\n      and\n      dup2\n      jump\t// out\n        /* \"ERC20Sale/DITtokensale.sol\":322:360  uint public  tokenPriceinWei = 1 ether */\n    tag_24:\n      sload(0x00)\n      dup2\n      jump\t// out\n        /* \"#utility.yul\":7:133   */\n    tag_54:\n        /* \"#utility.yul\":44:51   */\n      0x00\n        /* \"#utility.yul\":84:126   */\n      0xffffffffffffffffffffffffffffffffffffffff\n        /* \"#utility.yul\":77:82   */\n      dup3\n        /* \"#utility.yul\":73:127   */\n      and\n        /* \"#utility.yul\":62:127   */\n      swap1\n      pop\n        /* \"#utility.yul\":7:133   */\n      swap2\n      swap1\n      pop\n      jump\t// out\n        /* \"#utility.yul\":139:235   */\n    tag_55:\n        /* \"#utility.yul\":176:183   */\n      0x00\n        /* \"#utility.yul\":205:229   */\n      tag_84\n        /* \"#utility.yul\":223:228   */\n      dup3\n        /* \"#utility.yul\":205:229   */\n      tag_54\n      jump\t// in\n    tag_84:\n        /* \"#utility.yul\":194:229   */\n      swap1\n      pop\n        /* \"#utility.yul\":139:235   */\n      swap2\n      swap1\n      pop\n      jump\t// out\n        /* \"#utility.yul\":241:359   */\n    tag_56:\n        /* \"#utility.yul\":328:352   */\n      tag_86\n        /* \"#utility.yul\":346:351   */\n      dup2\n        /* \"#utility.yul\":328:352   */\n      tag_55\n      jump\t// in\n    tag_86:\n        /* \"#utility.yul\":323:326   */\n      dup3\n        /* \"#utility.yul\":316:353   */\n      mstore\n        /* \"#utility.yul\":241:359   */\n      pop\n      pop\n      jump\t// out\n        /* \"#utility.yul\":365:587   */\n    tag_13:\n        /* \"#utility.yul\":458:462   */\n      0x00\n        /* \"#utility.yul\":496:498   */\n      0x20\n        /* \"#utility.yul\":485:494   */\n      dup3\n        /* \"#utility.yul\":481:499   */\n      add\n        /* \"#utility.yul\":473:499   */\n      swap1\n      pop\n        /* \"#utility.yul\":509:580   */\n      tag_88\n        /* \"#utility.yul\":577:578   */\n      0x00\n        /* \"#utility.yul\":566:575   */\n      dup4\n        /* \"#utility.yul\":562:579   */\n      add\n        /* \"#utility.yul\":553:559   */\n      dup5\n        /* \"#utility.yul\":509:580   */\n      tag_56\n      jump\t// in\n    tag_88:\n        /* \"#utility.yul\":365:587   */\n      swap3\n      swap2\n      pop\n      pop\n      jump\t// out\n        /* \"#utility.yul\":593:653   */\n    tag_57:\n        /* \"#utility.yul\":621:624   */\n      0x00\n        /* \"#utility.yul\":642:647   */\n      dup2\n        /* \"#utility.yul\":635:647   */\n      swap1\n      pop\n        /* \"#utility.yul\":593:653   */\n      swap2\n      swap1\n      pop\n      jump\t// out\n        /* \"#utility.yul\":659:801   */\n    tag_58:\n        /* \"#utility.yul\":709:718   */\n      0x00\n        /* \"#utility.yul\":742:795   */\n      tag_91\n        /* \"#utility.yul\":760:794   */\n      tag_92\n        /* \"#utility.yul\":769:793   */\n      tag_93\n        /* \"#utility.yul\":787:792   */\n      dup5\n        /* \"#utility.yul\":769:793   */\n      tag_54\n      jump\t// in\n    tag_93:\n        /* \"#utility.yul\":760:794   */\n      tag_57\n      jump\t// in\n    tag_92:\n        /* \"#utility.yul\":742:795   */\n      tag_54\n      jump\t// in\n    tag_91:\n        /* \"#utility.yul\":729:795   */\n      swap1\n      pop\n        /* \"#utility.yul\":659:801   */\n      swap2\n      swap1\n      pop\n      jump\t// out\n        /* \"#utility.yul\":807:933   */\n    tag_59:\n        /* \"#utility.yul\":857:866   */\n      0x00\n        /* \"#utility.yul\":890:927   */\n      tag_95\n        /* \"#utility.yul\":921:926   */\n      dup3\n        /* \"#utility.yul\":890:927   */\n      tag_58\n      jump\t// in\n    tag_95:\n        /* \"#utility.yul\":877:927   */\n      swap1\n      pop\n        /* \"#utility.yul\":807:933   */\n      swap2\n      swap1\n      pop\n      jump\t// out\n        /* \"#utility.yul\":939:1077   */\n    tag_60:\n        /* \"#utility.yul\":1001:1010   */\n      0x00\n        /* \"#utility.yul\":1034:1071   */\n      tag_97\n        /* \"#utility.yul\":1065:1070   */\n      dup3\n        /* \"#utility.yul\":1034:1071   */\n      tag_59\n      jump\t// in\n    tag_97:\n        /* \"#utility.yul\":1021:1071   */\n      swap1\n      pop\n        /* \"#utility.yul\":939:1077   */\n      swap2\n      swap1\n      pop\n      jump\t// out\n        /* \"#utility.yul\":1083:1238   */\n    tag_61:\n        /* \"#utility.yul\":1182:1231   */\n      tag_99\n        /* \"#utility.yul\":1225:1230   */\n      dup2\n        /* \"#utility.yul\":1182:1231   */\n      tag_60\n      jump\t// in\n    tag_99:\n        /* \"#utility.yul\":1177:1180   */\n      dup3\n        /* \"#utility.yul\":1170:1232   */\n      mstore\n        /* \"#utility.yul\":1083:1238   */\n      pop\n      pop\n      jump\t// out\n        /* \"#utility.yul\":1244:1490   */\n    tag_21:\n        /* \"#utility.yul\":1349:1353   */\n      0x00\n        /* \"#utility.yul\":1387:1389   */\n      0x20\n        /* \"#utility.yul\":1376:1385   */\n      dup3\n        /* \"#utility.yul\":1372:1390   */\n      add\n        /* \"#utility.yul\":1364:1390   */\n      swap1\n      pop\n        /* \"#utility.yul\":1400:1483   */\n      tag_101\n        /* \"#utility.yul\":1480:1481   */\n      0x00\n        /* \"#utility.yul\":1469:1478   */\n      dup4\n        /* \"#utility.yul\":1465:1482   */\n      add\n        /* \"#utility.yul\":1456:1462   */\n      dup5\n        /* \"#utility.yul\":1400:1483   */\n      tag_61\n      jump\t// in\n    tag_101:\n        /* \"#utility.yul\":1244:1490   */\n      swap3\n      swap2\n      pop\n      pop\n      jump\t// out\n        /* \"#utility.yul\":1496:1573   */\n    tag_62:\n        /* \"#utility.yul\":1533:1540   */\n      0x00\n        /* \"#utility.yul\":1562:1567   */\n      dup2\n        /* \"#utility.yul\":1551:1567   */\n      swap1\n      pop\n        /* \"#utility.yul\":1496:1573   */\n      swap2\n      swap1\n      pop\n      jump\t// out\n        /* \"#utility.yul\":1579:1697   */\n    tag_63:\n        /* \"#utility.yul\":1666:1690   */\n      tag_104\n        /* \"#utility.yul\":1684:1689   */\n      dup2\n        /* \"#utility.yul\":1666:1690   */\n      tag_62\n      jump\t// in\n    tag_104:\n        /* \"#utility.yul\":1661:1664   */\n      dup3\n        /* \"#utility.yul\":1654:1691   */\n      mstore\n        /* \"#utility.yul\":1579:1697   */\n      pop\n      pop\n      jump\t// out\n        /* \"#utility.yul\":1703:1925   */\n    tag_26:\n        /* \"#utility.yul\":1796:1800   */\n      0x00\n        /* \"#utility.yul\":1834:1836   */\n      0x20\n        /* \"#utility.yul\":1823:1832   */\n      dup3\n        /* \"#utility.yul\":1819:1837   */\n      add\n        /* \"#utility.yul\":1811:1837   */\n      swap1\n      pop\n        /* \"#utility.yul\":1847:1918   */\n      tag_106\n        /* \"#utility.yul\":1915:1916   */\n      0x00\n        /* \"#utility.yul\":1904:1913   */\n      dup4\n        /* \"#utility.yul\":1900:1917   */\n      add\n        /* \"#utility.yul\":1891:1897   */\n      dup5\n        /* \"#utility.yul\":1847:1918   */\n      tag_63\n      jump\t// in\n    tag_106:\n        /* \"#utility.yul\":1703:1925   */\n      swap3\n      swap2\n      pop\n      pop\n      jump\t// out\n        /* \"#utility.yul\":1931:2100   */\n    tag_64:\n        /* \"#utility.yul\":2015:2026   */\n      0x00\n        /* \"#utility.yul\":2049:2055   */\n      dup3\n        /* \"#utility.yul\":2044:2047   */\n      dup3\n        /* \"#utility.yul\":2037:2056   */\n      mstore\n        /* \"#utility.yul\":2089:2093   */\n      0x20\n        /* \"#utility.yul\":2084:2087   */\n      dup3\n        /* \"#utility.yul\":2080:2094   */\n      add\n        /* \"#utility.yul\":2065:2094   */\n      swap1\n      pop\n        /* \"#utility.yul\":1931:2100   */\n      swap3\n      swap2\n      pop\n      pop\n      jump\t// out\n        /* \"#utility.yul\":2106:2272   */\n    tag_65:\n        /* \"#utility.yul\":2246:2264   */\n      0x4e6f7420656e6f75676820657468657200000000000000000000000000000000\n        /* \"#utility.yul\":2242:2243   */\n      0x00\n        /* \"#utility.yul\":2234:2240   */\n      dup3\n        /* \"#utility.yul\":2230:2244   */\n      add\n        /* \"#utility.yul\":2223:2265   */\n      mstore\n        /* \"#utility.yul\":2106:2272   */\n      pop\n      jump\t// out\n        /* \"#utility.yul\":2278:2644   */\n    tag_66:\n        /* \"#utility.yul\":2420:2423   */\n      0x00\n        /* \"#utility.yul\":2441:2508   */\n      tag_110\n        /* \"#utility.yul\":2505:2507   */\n      0x10\n        /* \"#utility.yul\":2500:2503   */\n      dup4\n        /* \"#utility.yul\":2441:2508   */\n      tag_64\n      jump\t// in\n    tag_110:\n        /* \"#utility.yul\":2434:2508   */\n      swap2\n      pop\n        /* \"#utility.yul\":2517:2610   */\n      tag_111\n        /* \"#utility.yul\":2606:2609   */\n      dup3\n        /* \"#utility.yul\":2517:2610   */\n      tag_65\n      jump\t// in\n    tag_111:\n        /* \"#utility.yul\":2635:2637   */\n      0x20\n        /* \"#utility.yul\":2630:2633   */\n      dup3\n        /* \"#utility.yul\":2626:2638   */\n      add\n        /* \"#utility.yul\":2619:2638   */\n      swap1\n      pop\n        /* \"#utility.yul\":2278:2644   */\n      swap2\n      swap1\n      pop\n      jump\t// out\n        /* \"#utility.yul\":2650:3069   */\n    tag_30:\n        /* \"#utility.yul\":2816:2820   */\n      0x00\n        /* \"#utility.yul\":2854:2856   */\n      0x20\n        /* \"#utility.yul\":2843:2852   */\n      dup3\n        /* \"#utility.yul\":2839:2857   */\n      add\n        /* \"#utility.yul\":2831:2857   */\n      swap1\n      pop\n        /* \"#utility.yul\":2903:2912   */\n      dup2\n        /* \"#utility.yul\":2897:2901   */\n      dup2\n        /* \"#utility.yul\":2893:2913   */\n      sub\n        /* \"#utility.yul\":2889:2890   */\n      0x00\n        /* \"#utility.yul\":2878:2887   */\n      dup4\n        /* \"#utility.yul\":2874:2891   */\n      add\n        /* \"#utility.yul\":2867:2914   */\n      mstore\n        /* \"#utility.yul\":2931:3062   */\n      tag_113\n        /* \"#utility.yul\":3057:3061   */\n      dup2\n        /* \"#utility.yul\":2931:3062   */\n      tag_66\n      jump\t// in\n    tag_113:\n        /* \"#utility.yul\":2923:3062   */\n      swap1\n      pop\n        /* \"#utility.yul\":2650:3069   */\n      swap2\n      swap1\n      pop\n      jump\t// out\n        /* \"#utility.yul\":3075:3255   */\n    tag_67:\n        /* \"#utility.yul\":3123:3200   */\n      0x4e487b7100000000000000000000000000000000000000000000000000000000\n        /* \"#utility.yul\":3120:3121   */\n      0x00\n        /* \"#utility.yul\":3113:3201   */\n      mstore\n        /* \"#utility.yul\":3220:3224   */\n      0x12\n        /* \"#utility.yul\":3217:3218   */\n      0x04\n        /* \"#utility.yul\":3210:3225   */\n      mstore\n        /* \"#utility.yul\":3244:3248   */\n      0x24\n        /* \"#utility.yul\":3241:3242   */\n      0x00\n        /* \"#utility.yul\":3234:3249   */\n      revert\n        /* \"#utility.yul\":3261:3441   */\n    tag_68:\n        /* \"#utility.yul\":3309:3386   */\n      0x4e487b7100000000000000000000000000000000000000000000000000000000\n        /* \"#utility.yul\":3306:3307   */\n      0x00\n        /* \"#utility.yul\":3299:3387   */\n      mstore\n        /* \"#utility.yul\":3406:3410   */\n      0x11\n        /* \"#utility.yul\":3403:3404   */\n      0x04\n        /* \"#utility.yul\":3396:3411   */\n      mstore\n        /* \"#utility.yul\":3430:3434   */\n      0x24\n        /* \"#utility.yul\":3427:3428   */\n      0x00\n        /* \"#utility.yul\":3420:3435   */\n      revert\n        /* \"#utility.yul\":3447:3632   */\n    tag_32:\n        /* \"#utility.yul\":3487:3488   */\n      0x00\n        /* \"#utility.yul\":3504:3524   */\n      tag_117\n        /* \"#utility.yul\":3522:3523   */\n      dup3\n        /* \"#utility.yul\":3504:3524   */\n      tag_62\n      jump\t// in\n    tag_117:\n        /* \"#utility.yul\":3499:3524   */\n      swap2\n      pop\n        /* \"#utility.yul\":3538:3558   */\n      tag_118\n        /* \"#utility.yul\":3556:3557   */\n      dup4\n        /* \"#utility.yul\":3538:3558   */\n      tag_62\n      jump\t// in\n    tag_118:\n        /* \"#utility.yul\":3533:3558   */\n      swap3\n      pop\n        /* \"#utility.yul\":3577:3578   */\n      dup3\n        /* \"#utility.yul\":3567:3602   */\n      tag_119\n      jumpi\n        /* \"#utility.yul\":3582:3600   */\n      tag_120\n      tag_67\n      jump\t// in\n    tag_120:\n        /* \"#utility.yul\":3567:3602   */\n    tag_119:\n        /* \"#utility.yul\":3624:3625   */\n      dup3\n        /* \"#utility.yul\":3621:3622   */\n      dup3\n        /* \"#utility.yul\":3617:3626   */\n      div\n        /* \"#utility.yul\":3612:3626   */\n      swap1\n      pop\n        /* \"#utility.yul\":3447:3632   */\n      swap3\n      swap2\n      pop\n      pop\n      jump\t// out\n        /* \"#utility.yul\":3638:4048   */\n    tag_34:\n        /* \"#utility.yul\":3678:3685   */\n      0x00\n        /* \"#utility.yul\":3701:3721   */\n      tag_122\n        /* \"#utility.yul\":3719:3720   */\n      dup3\n        /* \"#utility.yul\":3701:3721   */\n      tag_62\n      jump\t// in\n    tag_122:\n        /* \"#utility.yul\":3696:3721   */\n      swap2\n      pop\n        /* \"#utility.yul\":3735:3755   */\n      tag_123\n        /* \"#utility.yul\":3753:3754   */\n      dup4\n        /* \"#utility.yul\":3735:3755   */\n      tag_62\n      jump\t// in\n    tag_123:\n        /* \"#utility.yul\":3730:3755   */\n      swap3\n      pop\n        /* \"#utility.yul\":3790:3791   */\n      dup3\n        /* \"#utility.yul\":3787:3788   */\n      dup3\n        /* \"#utility.yul\":3783:3792   */\n      mul\n        /* \"#utility.yul\":3812:3842   */\n      tag_124\n        /* \"#utility.yul\":3830:3841   */\n      dup2\n        /* \"#utility.yul\":3812:3842   */\n      tag_62\n      jump\t// in\n    tag_124:\n        /* \"#utility.yul\":3801:3842   */\n      swap2\n      pop\n        /* \"#utility.yul\":3991:3992   */\n      dup3\n        /* \"#utility.yul\":3982:3989   */\n      dup3\n        /* \"#utility.yul\":3978:3993   */\n      div\n        /* \"#utility.yul\":3975:3976   */\n      dup5\n        /* \"#utility.yul\":3972:3994   */\n      eq\n        /* \"#utility.yul\":3952:3953   */\n      dup4\n        /* \"#utility.yul\":3945:3954   */\n      iszero\n        /* \"#utility.yul\":3925:4008   */\n      or\n        /* \"#utility.yul\":3902:4041   */\n      tag_125\n      jumpi\n        /* \"#utility.yul\":4021:4039   */\n      tag_126\n      tag_68\n      jump\t// in\n    tag_126:\n        /* \"#utility.yul\":3902:4041   */\n    tag_125:\n        /* \"#utility.yul\":3686:4048   */\n      pop\n        /* \"#utility.yul\":3638:4048   */\n      swap3\n      swap2\n      pop\n      pop\n      jump\t// out\n        /* \"#utility.yul\":4054:4248   */\n    tag_36:\n        /* \"#utility.yul\":4094:4098   */\n      0x00\n        /* \"#utility.yul\":4114:4134   */\n      tag_128\n        /* \"#utility.yul\":4132:4133   */\n      dup3\n        /* \"#utility.yul\":4114:4134   */\n      tag_62\n      jump\t// in\n    tag_128:\n        /* \"#utility.yul\":4109:4134   */\n      swap2\n      pop\n        /* \"#utility.yul\":4148:4168   */\n      tag_129\n        /* \"#utility.yul\":4166:4167   */\n      dup4\n        /* \"#utility.yul\":4148:4168   */\n      tag_62\n      jump\t// in\n    tag_129:\n        /* \"#utility.yul\":4143:4168   */\n      swap3\n      pop\n        /* \"#utility.yul\":4192:4193   */\n      dup3\n        /* \"#utility.yul\":4189:4190   */\n      dup3\n        /* \"#utility.yul\":4185:4194   */\n      sub\n        /* \"#utility.yul\":4177:4194   */\n      swap1\n      pop\n        /* \"#utility.yul\":4216:4217   */\n      dup2\n        /* \"#utility.yul\":4210:4214   */\n      dup2\n        /* \"#utility.yul\":4207:4218   */\n      gt\n        /* \"#utility.yul\":4204:4241   */\n      iszero\n      tag_130\n      jumpi\n        /* \"#utility.yul\":4221:4239   */\n      tag_131\n      tag_68\n      jump\t// in\n    tag_131:\n        /* \"#utility.yul\":4204:4241   */\n    tag_130:\n        /* \"#utility.yul\":4054:4248   */\n      swap3\n      swap2\n      pop\n      pop\n      jump\t// out\n        /* \"#utility.yul\":4335:4452   */\n    tag_70:\n        /* \"#utility.yul\":4444:4445   */\n      0x00\n        /* \"#utility.yul\":4441:4442   */\n      0x00\n        /* \"#utility.yul\":4434:4446   */\n      revert\n        /* \"#utility.yul\":4581:4667   */\n    tag_72:\n        /* \"#utility.yul\":4616:4623   */\n      0x00\n        /* \"#utility.yul\":4656:4660   */\n      0xff\n        /* \"#utility.yul\":4649:4654   */\n      dup3\n        /* \"#utility.yul\":4645:4661   */\n      and\n        /* \"#utility.yul\":4634:4661   */\n      swap1\n      pop\n        /* \"#utility.yul\":4581:4667   */\n      swap2\n      swap1\n      pop\n      jump\t// out\n        /* \"#utility.yul\":4673:4791   */\n    tag_73:\n        /* \"#utility.yul\":4744:4766   */\n      tag_137\n        /* \"#utility.yul\":4760:4765   */\n      dup2\n        /* \"#utility.yul\":4744:4766   */\n      tag_72\n      jump\t// in\n    tag_137:\n        /* \"#utility.yul\":4737:4742   */\n      dup2\n        /* \"#utility.yul\":4734:4767   */\n      eq\n        /* \"#utility.yul\":4724:4785   */\n      tag_138\n      jumpi\n        /* \"#utility.yul\":4781:4782   */\n      0x00\n        /* \"#utility.yul\":4778:4779   */\n      0x00\n        /* \"#utility.yul\":4771:4783   */\n      revert\n        /* \"#utility.yul\":4724:4785   */\n    tag_138:\n        /* \"#utility.yul\":4673:4791   */\n      pop\n      jump\t// out\n        /* \"#utility.yul\":4797:4936   */\n    tag_74:\n        /* \"#utility.yul\":4852:4857   */\n      0x00\n        /* \"#utility.yul\":4883:4889   */\n      dup2\n        /* \"#utility.yul\":4877:4890   */\n      mload\n        /* \"#utility.yul\":4868:4890   */\n      swap1\n      pop\n        /* \"#utility.yul\":4899:4930   */\n      tag_140\n        /* \"#utility.yul\":4924:4929   */\n      dup2\n        /* \"#utility.yul\":4899:4930   */\n      tag_73\n      jump\t// in\n    tag_140:\n        /* \"#utility.yul\":4797:4936   */\n      swap3\n      swap2\n      pop\n      pop\n      jump\t// out\n        /* \"#utility.yul\":4942:5289   */\n    tag_40:\n        /* \"#utility.yul\":5010:5016   */\n      0x00\n        /* \"#utility.yul\":5059:5061   */\n      0x20\n        /* \"#utility.yul\":5047:5056   */\n      dup3\n        /* \"#utility.yul\":5038:5045   */\n      dup5\n        /* \"#utility.yul\":5034:5057   */\n      sub\n        /* \"#utility.yul\":5030:5062   */\n      slt\n        /* \"#utility.yul\":5027:5146   */\n      iszero\n      tag_142\n      jumpi\n        /* \"#utility.yul\":5065:5144   */\n      tag_143\n      tag_70\n      jump\t// in\n    tag_143:\n        /* \"#utility.yul\":5027:5146   */\n    tag_142:\n        /* \"#utility.yul\":5185:5186   */\n      0x00\n        /* \"#utility.yul\":5210:5272   */\n      tag_144\n        /* \"#utility.yul\":5264:5271   */\n      dup5\n        /* \"#utility.yul\":5255:5261   */\n      dup3\n        /* \"#utility.yul\":5244:5253   */\n      dup6\n        /* \"#utility.yul\":5240:5262   */\n      add\n        /* \"#utility.yul\":5210:5272   */\n      tag_74\n      jump\t// in\n    tag_144:\n        /* \"#utility.yul\":5200:5272   */\n      swap2\n      pop\n        /* \"#utility.yul\":5156:5282   */\n      pop\n        /* \"#utility.yul\":4942:5289   */\n      swap3\n      swap2\n      pop\n      pop\n      jump\t// out\n        /* \"#utility.yul\":5295:5397   */\n    tag_75:\n        /* \"#utility.yul\":5337:5345   */\n      0x00\n        /* \"#utility.yul\":5384:5389   */\n      dup2\n        /* \"#utility.yul\":5381:5382   */\n      0x01\n        /* \"#utility.yul\":5377:5390   */\n      shr\n        /* \"#utility.yul\":5356:5390   */\n      swap1\n      pop\n        /* \"#utility.yul\":5295:5397   */\n      swap2\n      swap1\n      pop\n      jump\t// out\n        /* \"#utility.yul\":5403:6251   */\n    tag_76:\n        /* \"#utility.yul\":5464:5469   */\n      0x00\n        /* \"#utility.yul\":5471:5475   */\n      0x00\n        /* \"#utility.yul\":5495:5501   */\n      dup3\n        /* \"#utility.yul\":5486:5501   */\n      swap2\n      pop\n        /* \"#utility.yul\":5519:5524   */\n      dup4\n        /* \"#utility.yul\":5510:5524   */\n      swap1\n      pop\n        /* \"#utility.yul\":5533:6245   */\n    tag_147:\n        /* \"#utility.yul\":5554:5555   */\n      0x01\n        /* \"#utility.yul\":5544:5552   */\n      dup6\n        /* \"#utility.yul\":5541:5556   */\n      gt\n        /* \"#utility.yul\":5533:6245   */\n      iszero\n      tag_149\n      jumpi\n        /* \"#utility.yul\":5649:5653   */\n      dup1\n        /* \"#utility.yul\":5644:5647   */\n      dup7\n        /* \"#utility.yul\":5640:5654   */\n      div\n        /* \"#utility.yul\":5634:5638   */\n      dup2\n        /* \"#utility.yul\":5631:5655   */\n      gt\n        /* \"#utility.yul\":5628:5678   */\n      iszero\n      tag_150\n      jumpi\n        /* \"#utility.yul\":5658:5676   */\n      tag_151\n      tag_68\n      jump\t// in\n    tag_151:\n        /* \"#utility.yul\":5628:5678   */\n    tag_150:\n        /* \"#utility.yul\":5708:5709   */\n      0x01\n        /* \"#utility.yul\":5698:5706   */\n      dup6\n        /* \"#utility.yul\":5694:5710   */\n      and\n        /* \"#utility.yul\":5691:6142   */\n      iszero\n      tag_152\n      jumpi\n        /* \"#utility.yul\":6123:6127   */\n      dup1\n        /* \"#utility.yul\":6116:6121   */\n      dup3\n        /* \"#utility.yul\":6112:6128   */\n      mul\n        /* \"#utility.yul\":6103:6128   */\n      swap2\n      pop\n        /* \"#utility.yul\":5691:6142   */\n    tag_152:\n        /* \"#utility.yul\":6173:6177   */\n      dup1\n        /* \"#utility.yul\":6167:6171   */\n      dup2\n        /* \"#utility.yul\":6163:6178   */\n      mul\n        /* \"#utility.yul\":6155:6178   */\n      swap1\n      pop\n        /* \"#utility.yul\":6203:6235   */\n      tag_153\n        /* \"#utility.yul\":6226:6234   */\n      dup6\n        /* \"#utility.yul\":6203:6235   */\n      tag_75\n      jump\t// in\n    tag_153:\n        /* \"#utility.yul\":6191:6235   */\n      swap5\n      pop\n        /* \"#utility.yul\":5533:6245   */\n      jump(tag_147)\n    tag_149:\n        /* \"#utility.yul\":5403:6251   */\n      swap5\n      pop\n      swap5\n      swap3\n      pop\n      pop\n      pop\n      jump\t// out\n        /* \"#utility.yul\":6257:7330   */\n    tag_77:\n        /* \"#utility.yul\":6311:6316   */\n      0x00\n        /* \"#utility.yul\":6502:6510   */\n      dup3\n        /* \"#utility.yul\":6492:6532   */\n      tag_155\n      jumpi\n        /* \"#utility.yul\":6523:6524   */\n      0x01\n        /* \"#utility.yul\":6514:6524   */\n      swap1\n      pop\n        /* \"#utility.yul\":6525:6530   */\n      jump(tag_154)\n        /* \"#utility.yul\":6492:6532   */\n    tag_155:\n        /* \"#utility.yul\":6551:6555   */\n      dup2\n        /* \"#utility.yul\":6541:6577   */\n      tag_156\n      jumpi\n        /* \"#utility.yul\":6568:6569   */\n      0x00\n        /* \"#utility.yul\":6559:6569   */\n      swap1\n      pop\n        /* \"#utility.yul\":6570:6575   */\n      jump(tag_154)\n        /* \"#utility.yul\":6541:6577   */\n    tag_156:\n        /* \"#utility.yul\":6637:6641   */\n      dup2\n        /* \"#utility.yul\":6685:6686   */\n      0x01\n        /* \"#utility.yul\":6680:6707   */\n      dup2\n      eq\n      tag_158\n      jumpi\n        /* \"#utility.yul\":6721:6722   */\n      0x02\n        /* \"#utility.yul\":6716:6907   */\n      dup2\n      eq\n      tag_159\n      jumpi\n        /* \"#utility.yul\":6630:6907   */\n      jump(tag_157)\n        /* \"#utility.yul\":6680:6707   */\n    tag_158:\n        /* \"#utility.yul\":6698:6699   */\n      0x01\n        /* \"#utility.yul\":6689:6699   */\n      swap2\n      pop\n        /* \"#utility.yul\":6700:6705   */\n      pop\n      jump(tag_154)\n        /* \"#utility.yul\":6716:6907   */\n    tag_159:\n        /* \"#utility.yul\":6761:6764   */\n      0xff\n        /* \"#utility.yul\":6751:6759   */\n      dup5\n        /* \"#utility.yul\":6748:6765   */\n      gt\n        /* \"#utility.yul\":6745:6788   */\n      iszero\n      tag_160\n      jumpi\n        /* \"#utility.yul\":6768:6786   */\n      tag_161\n      tag_68\n      jump\t// in\n    tag_161:\n        /* \"#utility.yul\":6745:6788   */\n    tag_160:\n        /* \"#utility.yul\":6817:6825   */\n      dup4\n        /* \"#utility.yul\":6814:6815   */\n      0x02\n        /* \"#utility.yul\":6810:6826   */\n      exp\n        /* \"#utility.yul\":6801:6826   */\n      swap2\n      pop\n        /* \"#utility.yul\":6852:6855   */\n      dup5\n        /* \"#utility.yul\":6845:6850   */\n      dup3\n        /* \"#utility.yul\":6842:6856   */\n      gt\n        /* \"#utility.yul\":6839:6879   */\n      iszero\n      tag_162\n      jumpi\n        /* \"#utility.yul\":6859:6877   */\n      tag_163\n      tag_68\n      jump\t// in\n    tag_163:\n        /* \"#utility.yul\":6839:6879   */\n    tag_162:\n        /* \"#utility.yul\":6892:6897   */\n      pop\n      jump(tag_154)\n        /* \"#utility.yul\":6630:6907   */\n    tag_157:\n      pop\n        /* \"#utility.yul\":7016:7018   */\n      0x20\n        /* \"#utility.yul\":7006:7014   */\n      dup4\n        /* \"#utility.yul\":7003:7019   */\n      lt\n        /* \"#utility.yul\":6997:7000   */\n      0x0133\n        /* \"#utility.yul\":6991:6995   */\n      dup4\n        /* \"#utility.yul\":6988:7001   */\n      lt\n        /* \"#utility.yul\":6984:7020   */\n      and\n        /* \"#utility.yul\":6966:6968   */\n      0x4e\n        /* \"#utility.yul\":6956:6964   */\n      dup5\n        /* \"#utility.yul\":6953:6969   */\n      lt\n        /* \"#utility.yul\":6948:6950   */\n      0x0b\n        /* \"#utility.yul\":6942:6946   */\n      dup5\n        /* \"#utility.yul\":6939:6951   */\n      lt\n        /* \"#utility.yul\":6935:6970   */\n      and\n        /* \"#utility.yul\":6919:7030   */\n      or\n        /* \"#utility.yul\":6916:7162   */\n      iszero\n      tag_164\n      jumpi\n        /* \"#utility.yul\":7072:7080   */\n      dup3\n        /* \"#utility.yul\":7066:7070   */\n      dup3\n        /* \"#utility.yul\":7062:7081   */\n      exp\n        /* \"#utility.yul\":7053:7081   */\n      swap1\n      pop\n        /* \"#utility.yul\":7107:7110   */\n      dup4\n        /* \"#utility.yul\":7100:7105   */\n      dup2\n        /* \"#utility.yul\":7097:7111   */\n      gt\n        /* \"#utility.yul\":7094:7134   */\n      iszero\n      tag_165\n      jumpi\n        /* \"#utility.yul\":7114:7132   */\n      tag_166\n      tag_68\n      jump\t// in\n    tag_166:\n        /* \"#utility.yul\":7094:7134   */\n    tag_165:\n        /* \"#utility.yul\":7147:7152   */\n      jump(tag_154)\n        /* \"#utility.yul\":6916:7162   */\n    tag_164:\n        /* \"#utility.yul\":7187:7229   */\n      tag_167\n        /* \"#utility.yul\":7225:7228   */\n      dup5\n        /* \"#utility.yul\":7215:7223   */\n      dup5\n        /* \"#utility.yul\":7209:7213   */\n      dup5\n        /* \"#utility.yul\":7206:7207   */\n      0x01\n        /* \"#utility.yul\":7187:7229   */\n      tag_76\n      jump\t// in\n    tag_167:\n        /* \"#utility.yul\":7172:7229   */\n      swap3\n      pop\n      swap1\n      pop\n        /* \"#utility.yul\":7261:7265   */\n      dup2\n        /* \"#utility.yul\":7256:7259   */\n      dup5\n        /* \"#utility.yul\":7252:7266   */\n      div\n        /* \"#utility.yul\":7245:7250   */\n      dup2\n        /* \"#utility.yul\":7242:7267   */\n      gt\n        /* \"#utility.yul\":7239:7290   */\n      iszero\n      tag_168\n      jumpi\n        /* \"#utility.yul\":7270:7288   */\n      tag_169\n      tag_68\n      jump\t// in\n    tag_169:\n        /* \"#utility.yul\":7239:7290   */\n    tag_168:\n        /* \"#utility.yul\":7319:7323   */\n      dup2\n        /* \"#utility.yul\":7312:7317   */\n      dup2\n        /* \"#utility.yul\":7308:7324   */\n      mul\n        /* \"#utility.yul\":7299:7324   */\n      swap1\n      pop\n        /* \"#utility.yul\":6257:7330   */\n    tag_154:\n      swap4\n      swap3\n      pop\n      pop\n      pop\n      jump\t// out\n        /* \"#utility.yul\":7336:7617   */\n    tag_42:\n        /* \"#utility.yul\":7394:7399   */\n      0x00\n        /* \"#utility.yul\":7418:7441   */\n      tag_171\n        /* \"#utility.yul\":7436:7440   */\n      dup3\n        /* \"#utility.yul\":7418:7441   */\n      tag_62\n      jump\t// in\n    tag_171:\n        /* \"#utility.yul\":7410:7441   */\n      swap2\n      pop\n        /* \"#utility.yul\":7462:7487   */\n      tag_172\n        /* \"#utility.yul\":7478:7486   */\n      dup4\n        /* \"#utility.yul\":7462:7487   */\n      tag_72\n      jump\t// in\n    tag_172:\n        /* \"#utility.yul\":7450:7487   */\n      swap3\n      pop\n        /* \"#utility.yul\":7506:7610   */\n      tag_173\n        /* \"#utility.yul\":7543:7609   */\n      0xffffffffffffffffffffffffffffffffffffffffffffffffffffffffffffffff\n        /* \"#utility.yul\":7533:7541   */\n      dup5\n        /* \"#utility.yul\":7527:7531   */\n      dup5\n        /* \"#utility.yul\":7506:7610   */\n      tag_77\n      jump\t// in\n    tag_173:\n        /* \"#utility.yul\":7497:7610   */\n      swap1\n      pop\n        /* \"#utility.yul\":7336:7617   */\n      swap3\n      swap2\n      pop\n      pop\n      jump\t// out\n        /* \"#utility.yul\":7623:8065   */\n    tag_45:\n        /* \"#utility.yul\":7772:7776   */\n      0x00\n        /* \"#utility.yul\":7810:7812   */\n      0x60\n        /* \"#utility.yul\":7799:7808   */\n      dup3\n        /* \"#utility.yul\":7795:7813   */\n      add\n        /* \"#utility.yul\":7787:7813   */\n      swap1\n      pop\n        /* \"#utility.yul\":7823:7894   */\n      tag_175\n        /* \"#utility.yul\":7891:7892   */\n      0x00\n        /* \"#utility.yul\":7880:7889   */\n      dup4\n        /* \"#utility.yul\":7876:7893   */\n      add\n        /* \"#utility.yul\":7867:7873   */\n      dup7\n        /* \"#utility.yul\":7823:7894   */\n      tag_56\n      jump\t// in\n    tag_175:\n        /* \"#utility.yul\":7904:7976   */\n      tag_176\n        /* \"#utility.yul\":7972:7974   */\n      0x20\n        /* \"#utility.yul\":7961:7970   */\n      dup4\n        /* \"#utility.yul\":7957:7975   */\n      add\n        /* \"#utility.yul\":7948:7954   */\n      dup6\n        /* \"#utility.yul\":7904:7976   */\n      tag_56\n      jump\t// in\n    tag_176:\n        /* \"#utility.yul\":7986:8058   */\n      tag_177\n        /* \"#utility.yul\":8054:8056   */\n      0x40\n        /* \"#utility.yul\":8043:8052   */\n      dup4\n        /* \"#utility.yul\":8039:8057   */\n      add\n        /* \"#utility.yul\":8030:8036   */\n      dup5\n        /* \"#utility.yul\":7986:8058   */\n      tag_63\n      jump\t// in\n    tag_177:\n        /* \"#utility.yul\":7623:8065   */\n      swap5\n      swap4\n      pop\n      pop\n      pop\n      pop\n      jump\t// out\n        /* \"#utility.yul\":8071:8161   */\n    tag_78:\n        /* \"#utility.yul\":8105:8112   */\n      0x00\n        /* \"#utility.yul\":8148:8153   */\n      dup2\n        /* \"#utility.yul\":8141:8154   */\n      iszero\n        /* \"#utility.yul\":8134:8155   */\n      iszero\n        /* \"#utility.yul\":8123:8155   */\n      swap1\n      pop\n        /* \"#utility.yul\":8071:8161   */\n      swap2\n      swap1\n      pop\n      jump\t// out\n        /* \"#utility.yul\":8167:8283   */\n    tag_79:\n        /* \"#utility.yul\":8237:8258   */\n      tag_180\n        /* \"#utility.yul\":8252:8257   */\n      dup2\n        /* \"#utility.yul\":8237:8258   */\n      tag_78\n      jump\t// in\n    tag_180:\n        /* \"#utility.yul\":8230:8235   */\n      dup2\n        /* \"#utility.yul\":8227:8259   */\n      eq\n        /* \"#utility.yul\":8217:8277   */\n      tag_181\n      jumpi\n        /* \"#utility.yul\":8273:8274   */\n      0x00\n        /* \"#utility.yul\":8270:8271   */\n      0x00\n        /* \"#utility.yul\":8263:8275   */\n      revert\n        /* \"#utility.yul\":8217:8277   */\n    tag_181:\n        /* \"#utility.yul\":8167:8283   */\n      pop\n      jump\t// out\n        /* \"#utility.yul\":8289:8426   */\n    tag_80:\n        /* \"#utility.yul\":8343:8348   */\n      0x00\n        /* \"#utility.yul\":8374:8380   */\n      dup2\n        /* \"#utility.yul\":8368:8381   */\n      mload\n        /* \"#utility.yul\":8359:8381   */\n      swap1\n      pop\n        /* \"#utility.yul\":8390:8420   */\n      tag_183\n        /* \"#utility.yul\":8414:8419   */\n      dup2\n        /* \"#utility.yul\":8390:8420   */\n      tag_79\n      jump\t// in\n    tag_183:\n        /* \"#utility.yul\":8289:8426   */\n      swap3\n      swap2\n      pop\n      pop\n      jump\t// out\n        /* \"#utility.yul\":8432:8777   */\n    tag_49:\n        /* \"#utility.yul\":8499:8505   */\n      0x00\n        /* \"#utility.yul\":8548:8550   */\n      0x20\n        /* \"#utility.yul\":8536:8545   */\n      dup3\n        /* \"#utility.yul\":8527:8534   */\n      dup5\n        /* \"#utility.yul\":8523:8546   */\n      sub\n        /* \"#utility.yul\":8519:8551   */\n      slt\n        /* \"#utility.yul\":8516:8635   */\n      iszero\n      tag_185\n      jumpi\n        /* \"#utility.yul\":8554:8633   */\n      tag_186\n      tag_70\n      jump\t// in\n    tag_186:\n        /* \"#utility.yul\":8516:8635   */\n    tag_185:\n        /* \"#utility.yul\":8674:8675   */\n      0x00\n        /* \"#utility.yul\":8699:8760   */\n      tag_187\n        /* \"#utility.yul\":8752:8759   */\n      dup5\n        /* \"#utility.yul\":8743:8749   */\n      dup3\n        /* \"#utility.yul\":8732:8741   */\n      dup6\n        /* \"#utility.yul\":8728:8750   */\n      add\n        /* \"#utility.yul\":8699:8760   */\n      tag_80\n      jump\t// in\n    tag_187:\n        /* \"#utility.yul\":8689:8760   */\n      swap2\n      pop\n        /* \"#utility.yul\":8645:8770   */\n      pop\n        /* \"#utility.yul\":8432:8777   */\n      swap3\n      swap2\n      pop\n      pop\n      jump\t// out\n\n    auxdata: 0xa26469706673582212208bfa2787f97d4f87973dcd0e1426908212048e0dca9c779c10042926dbf5380d64736f6c634300081d0033\n}\n",
				"bytecode": {
					"linkReferences": {},
					"object": "6080604052670de0b6b3a76400005f5534801561001a575f5ffd5b506040516109d33803806109d3833981810160405281019061003c9190610120565b3360025f6101000a81548173ffffffffffffffffffffffffffffffffffffffff021916908373ffffffffffffffffffffffffffffffffffffffff1602179055508060015f6101000a81548173ffffffffffffffffffffffffffffffffffffffff021916908373ffffffffffffffffffffffffffffffffffffffff1602179055505061014b565b5f5ffd5b5f73ffffffffffffffffffffffffffffffffffffffff82169050919050565b5f6100ef826100c6565b9050919050565b6100ff816100e5565b8114610109575f5ffd5b50565b5f8151905061011a816100f6565b92915050565b5f60208284031215610135576101346100c2565b5b5f6101428482850161010c565b91505092915050565b61087b806101585f395ff3fe608060405260043610610049575f3560e01c8063094b90411461004d5780632b14108214610057578063d50c453814610081578063fc0c546a14610097578063fc71e97e146100c1575b5f5ffd5b6100556100eb565b005b348015610062575f5ffd5b5061006b61030e565b604051610078919061039e565b60405180910390f35b34801561008c575f5ffd5b50610095610333565b005b3480156100a2575f5ffd5b506100ab610335565b6040516100b89190610412565b60405180910390f35b3480156100cc575f5ffd5b506100d561035a565b6040516100e29190610443565b60405180910390f35b5f5434101561012f576040517f08c379a0000000000000000000000000000000000000000000000000000000008152600401610126906104b6565b60405180910390fd5b5f5f543461013d919061052e565b90505f5f548261014d919061055e565b34610158919061059f565b905060015f9054906101000a900473ffffffffffffffffffffffffffffffffffffffff1673ffffffffffffffffffffffffffffffffffffffff1663c0d84ce560025f9054906101000a900473ffffffffffffffffffffffffffffffffffffffff163360015f9054906101000a900473ffffffffffffffffffffffffffffffffffffffff1673ffffffffffffffffffffffffffffffffffffffff1663313ce5676040518163ffffffff1660e01b8152600401602060405180830381865afa158015610224573d5f5f3e3d5ffd5b505050506040513d601f19601f82011682018060405250810190610248919061060c565b600a6102549190610766565b8661025f919061055e565b6040518463ffffffff1660e01b815260040161027d939291906107b0565b6020604051808303815f875af1158015610299573d5f5f3e3d5ffd5b505050506040513d601f19601f820116820180604052508101906102bd919061081a565b503373ffffffffffffffffffffffffffffffffffffffff166108fc8290811502906040515f60405180830381858888f19350505050158015610301573d5f5f3e3d5ffd5b5061030a610333565b5050565b60025f9054906101000a900473ffffffffffffffffffffffffffffffffffffffff1681565b565b60015f9054906101000a900473ffffffffffffffffffffffffffffffffffffffff1681565b5f5481565b5f73ffffffffffffffffffffffffffffffffffffffff82169050919050565b5f6103888261035f565b9050919050565b6103988161037e565b82525050565b5f6020820190506103b15f83018461038f565b92915050565b5f819050919050565b5f6103da6103d56103d08461035f565b6103b7565b61035f565b9050919050565b5f6103eb826103c0565b9050919050565b5f6103fc826103e1565b9050919050565b61040c816103f2565b82525050565b5f6020820190506104255f830184610403565b92915050565b5f819050919050565b61043d8161042b565b82525050565b5f6020820190506104565f830184610434565b92915050565b5f82825260208201905092915050565b7f4e6f7420656e6f756768206574686572000000000000000000000000000000005f82015250565b5f6104a060108361045c565b91506104ab8261046c565b602082019050919050565b5f6020820190508181035f8301526104cd81610494565b9050919050565b7f4e487b71000000000000000000000000000000000000000000000000000000005f52601260045260245ffd5b7f4e487b71000000000000000000000000000000000000000000000000000000005f52601160045260245ffd5b5f6105388261042b565b91506105438361042b565b925082610553576105526104d4565b5b828204905092915050565b5f6105688261042b565b91506105738361042b565b92508282026105818161042b565b9150828204841483151761059857610597610501565b5b5092915050565b5f6105a98261042b565b91506105b48361042b565b92508282039050818111156105cc576105cb610501565b5b92915050565b5f5ffd5b5f60ff82169050919050565b6105eb816105d6565b81146105f5575f5ffd5b50565b5f81519050610606816105e2565b92915050565b5f60208284031215610621576106206105d2565b5b5f61062e848285016105f8565b91505092915050565b5f8160011c9050919050565b5f5f8291508390505b600185111561068c5780860481111561066857610667610501565b5b60018516156106775780820291505b808102905061068585610637565b945061064c565b94509492505050565b5f826106a4576001905061075f565b816106b1575f905061075f565b81600181146106c757600281146106d157610700565b600191505061075f565b60ff8411156106e3576106e2610501565b5b8360020a9150848211156106fa576106f9610501565b5b5061075f565b5060208310610133831016604e8410600b84101617156107355782820a9050838111156107305761072f610501565b5b61075f565b6107428484846001610643565b9250905081840481111561075957610758610501565b5b81810290505b9392505050565b5f6107708261042b565b915061077b836105d6565b92506107a87fffffffffffffffffffffffffffffffffffffffffffffffffffffffffffffffff8484610695565b905092915050565b5f6060820190506107c35f83018661038f565b6107d0602083018561038f565b6107dd6040830184610434565b949350505050565b5f8115159050919050565b6107f9816107e5565b8114610803575f5ffd5b50565b5f81519050610814816107f0565b92915050565b5f6020828403121561082f5761082e6105d2565b5b5f61083c84828501610806565b9150509291505056fea26469706673582212208bfa2787f97d4f87973dcd0e1426908212048e0dca9c779c10042926dbf5380d64736f6c634300081d0033",
					"opcodes": "PUSH1 0x80 PUSH1 0x40 MSTORE PUSH8 0xDE0B6B3A7640000 PUSH0 SSTORE CALLVALUE DUP1 ISZERO PUSH2 0x1A JUMPI PUSH0 PUSH0 REVERT JUMPDEST POP PUSH1 0x40 MLOAD PUSH2 0x9D3 CODESIZE SUB DUP1 PUSH2 0x9D3 DUP4 CODECOPY DUP2 DUP2 ADD PUSH1 0x40 MSTORE DUP2 ADD SWAP1 PUSH2 0x3C SWAP2 SWAP1 PUSH2 0x120 JUMP JUMPDEST CALLER PUSH1 0x2 PUSH0 PUSH2 0x100 EXP DUP2 SLOAD DUP2 PUSH20 0xFFFFFFFFFFFFFFFFFFFFFFFFFFFFFFFFFFFFFFFF MUL NOT AND SWAP1 DUP4 PUSH20 0xFFFFFFFFFFFFFFFFFFFFFFFFFFFFFFFFFFFFFFFF AND MUL OR SWAP1 SSTORE POP DUP1 PUSH1 0x1 PUSH0 PUSH2 0x100 EXP DUP2 SLOAD DUP2 PUSH20 0xFFFFFFFFFFFFFFFFFFFFFFFFFFFFFFFFFFFFFFFF MUL NOT AND SWAP1 DUP4 PUSH20 0xFFFFFFFFFFFFFFFFFFFFFFFFFFFFFFFFFFFFFFFF AND MUL OR SWAP1 SSTORE POP POP PUSH2 0x14B JUMP JUMPDEST PUSH0 PUSH0 REVERT JUMPDEST PUSH0 PUSH20 0xFFFFFFFFFFFFFFFFFFFFFFFFFFFFFFFFFFFFFFFF DUP3 AND SWAP1 POP SWAP2 SWAP1 POP JUMP JUMPDEST PUSH0 PUSH2 0xEF DUP3 PUSH2 0xC6 JUMP JUMPDEST SWAP1 POP SWAP2 SWAP1 POP JUMP JUMPDEST PUSH2 0xFF DUP2 PUSH2 0xE5 JUMP JUMPDEST DUP2 EQ PUSH2 0x109 JUMPI PUSH0 PUSH0 REVERT JUMPDEST POP JUMP JUMPDEST PUSH0 DUP2 MLOAD SWAP1 POP PUSH2 0x11A DUP2 PUSH2 0xF6 JUMP JUMPDEST SWAP3 SWAP2 POP POP JUMP JUMPDEST PUSH0 PUSH1 0x20 DUP3 DUP5 SUB SLT ISZERO PUSH2 0x135 JUMPI PUSH2 0x134 PUSH2 0xC2 JUMP JUMPDEST JUMPDEST PUSH0 PUSH2 0x142 DUP5 DUP3 DUP6 ADD PUSH2 0x10C JUMP JUMPDEST SWAP2 POP POP SWAP3 SWAP2 POP POP JUMP JUMPDEST PUSH2 0x87B DUP1 PUSH2 0x158 PUSH0 CODECOPY PUSH0 RETURN INVALID PUSH1 0x80 PUSH1 0x40 MSTORE PUSH1 0x4 CALLDATASIZE LT PUSH2 0x49 JUMPI PUSH0 CALLDATALOAD PUSH1 0xE0 SHR DUP1 PUSH4 0x94B9041 EQ PUSH2 0x4D JUMPI DUP1 PUSH4 0x2B141082 EQ PUSH2 0x57 JUMPI DUP1 PUSH4 0xD50C4538 EQ PUSH2 0x81 JUMPI DUP1 PUSH4 0xFC0C546A EQ PUSH2 0x97 JUMPI DUP1 PUSH4 0xFC71E97E EQ PUSH2 0xC1 JUMPI JUMPDEST PUSH0 PUSH0 REVERT JUMPDEST PUSH2 0x55 PUSH2 0xEB JUMP JUMPDEST STOP JUMPDEST CALLVALUE DUP1 ISZERO PUSH2 0x62 JUMPI PUSH0 PUSH0 REVERT JUMPDEST POP PUSH2 0x6B PUSH2 0x30E JUMP JUMPDEST PUSH1 0x40 MLOAD PUSH2 0x78 SWAP2 SWAP1 PUSH2 0x39E JUMP JUMPDEST PUSH1 0x40 MLOAD DUP1 SWAP2 SUB SWAP1 RETURN JUMPDEST CALLVALUE DUP1 ISZERO PUSH2 0x8C JUMPI PUSH0 PUSH0 REVERT JUMPDEST POP PUSH2 0x95 PUSH2 0x333 JUMP JUMPDEST STOP JUMPDEST CALLVALUE DUP1 ISZERO PUSH2 0xA2 JUMPI PUSH0 PUSH0 REVERT JUMPDEST POP PUSH2 0xAB PUSH2 0x335 JUMP JUMPDEST PUSH1 0x40 MLOAD PUSH2 0xB8 SWAP2 SWAP1 PUSH2 0x412 JUMP JUMPDEST PUSH1 0x40 MLOAD DUP1 SWAP2 SUB SWAP1 RETURN JUMPDEST CALLVALUE DUP1 ISZERO PUSH2 0xCC JUMPI PUSH0 PUSH0 REVERT JUMPDEST POP PUSH2 0xD5 PUSH2 0x35A JUMP JUMPDEST PUSH1 0x40 MLOAD PUSH2 0xE2 SWAP2 SWAP1 PUSH2 0x443 JUMP JUMPDEST PUSH1 0x40 MLOAD DUP1 SWAP2 SUB SWAP1 RETURN JUMPDEST PUSH0 SLOAD CALLVALUE LT ISZERO PUSH2 0x12F JUMPI PUSH1 0x40 MLOAD PUSH32 0x8C379A000000000000000000000000000000000000000000000000000000000 DUP2 MSTORE PUSH1 0x4 ADD PUSH2 0x126 SWAP1 PUSH2 0x4B6 JUMP JUMPDEST PUSH1 0x40 MLOAD DUP1 SWAP2 SUB SWAP1 REVERT JUMPDEST PUSH0 PUSH0 SLOAD CALLVALUE PUSH2 0x13D SWAP2 SWAP1 PUSH2 0x52E JUMP JUMPDEST SWAP1 POP PUSH0 PUSH0 SLOAD DUP3 PUSH2 0x14D SWAP2 SWAP1 PUSH2 0x55E JUMP JUMPDEST CALLVALUE PUSH2 0x158 SWAP2 SWAP1 PUSH2 0x59F JUMP JUMPDEST SWAP1 POP PUSH1 0x1 PUSH0 SWAP1 SLOAD SWAP1 PUSH2 0x100 EXP SWAP1 DIV PUSH20 0xFFFFFFFFFFFFFFFFFFFFFFFFFFFFFFFFFFFFFFFF AND PUSH20 0xFFFFFFFFFFFFFFFFFFFFFFFFFFFFFFFFFFFFFFFF AND PUSH4 0xC0D84CE5 PUSH1 0x2 PUSH0 SWAP1 SLOAD SWAP1 PUSH2 0x100 EXP SWAP1 DIV PUSH20 0xFFFFFFFFFFFFFFFFFFFFFFFFFFFFFFFFFFFFFFFF AND CALLER PUSH1 0x1 PUSH0 SWAP1 SLOAD SWAP1 PUSH2 0x100 EXP SWAP1 DIV PUSH20 0xFFFFFFFFFFFFFFFFFFFFFFFFFFFFFFFFFFFFFFFF AND PUSH20 0xFFFFFFFFFFFFFFFFFFFFFFFFFFFFFFFFFFFFFFFF AND PUSH4 0x313CE567 PUSH1 0x40 MLOAD DUP2 PUSH4 0xFFFFFFFF AND PUSH1 0xE0 SHL DUP2 MSTORE PUSH1 0x4 ADD PUSH1 0x20 PUSH1 0x40 MLOAD DUP1 DUP4 SUB DUP2 DUP7 GAS STATICCALL ISZERO DUP1 ISZERO PUSH2 0x224 JUMPI RETURNDATASIZE PUSH0 PUSH0 RETURNDATACOPY RETURNDATASIZE PUSH0 REVERT JUMPDEST POP POP POP POP PUSH1 0x40 MLOAD RETURNDATASIZE PUSH1 0x1F NOT PUSH1 0x1F DUP3 ADD AND DUP3 ADD DUP1 PUSH1 0x40 MSTORE POP DUP2 ADD SWAP1 PUSH2 0x248 SWAP2 SWAP1 PUSH2 0x60C JUMP JUMPDEST PUSH1 0xA PUSH2 0x254 SWAP2 SWAP1 PUSH2 0x766 JUMP JUMPDEST DUP7 PUSH2 0x25F SWAP2 SWAP1 PUSH2 0x55E JUMP JUMPDEST PUSH1 0x40 MLOAD DUP5 PUSH4 0xFFFFFFFF AND PUSH1 0xE0 SHL DUP2 MSTORE PUSH1 0x4 ADD PUSH2 0x27D SWAP4 SWAP3 SWAP2 SWAP1 PUSH2 0x7B0 JUMP JUMPDEST PUSH1 0x20 PUSH1 0x40 MLOAD DUP1 DUP4 SUB DUP2 PUSH0 DUP8 GAS CALL ISZERO DUP1 ISZERO PUSH2 0x299 JUMPI RETURNDATASIZE PUSH0 PUSH0 RETURNDATACOPY RETURNDATASIZE PUSH0 REVERT JUMPDEST POP POP POP POP PUSH1 0x40 MLOAD RETURNDATASIZE PUSH1 0x1F NOT PUSH1 0x1F DUP3 ADD AND DUP3 ADD DUP1 PUSH1 0x40 MSTORE POP DUP2 ADD SWAP1 PUSH2 0x2BD SWAP2 SWAP1 PUSH2 0x81A JUMP JUMPDEST POP CALLER PUSH20 0xFFFFFFFFFFFFFFFFFFFFFFFFFFFFFFFFFFFFFFFF AND PUSH2 0x8FC DUP3 SWAP1 DUP2 ISZERO MUL SWAP1 PUSH1 0x40 MLOAD PUSH0 PUSH1 0x40 MLOAD DUP1 DUP4 SUB DUP2 DUP6 DUP9 DUP9 CALL SWAP4 POP POP POP POP ISZERO DUP1 ISZERO PUSH2 0x301 JUMPI RETURNDATASIZE PUSH0 PUSH0 RETURNDATACOPY RETURNDATASIZE PUSH0 REVERT JUMPDEST POP PUSH2 0x30A PUSH2 0x333 JUMP JUMPDEST POP POP JUMP JUMPDEST PUSH1 0x2 PUSH0 SWAP1 SLOAD SWAP1 PUSH2 0x100 EXP SWAP1 DIV PUSH20 0xFFFFFFFFFFFFFFFFFFFFFFFFFFFFFFFFFFFFFFFF AND DUP2 JUMP JUMPDEST JUMP JUMPDEST PUSH1 0x1 PUSH0 SWAP1 SLOAD SWAP1 PUSH2 0x100 EXP SWAP1 DIV PUSH20 0xFFFFFFFFFFFFFFFFFFFFFFFFFFFFFFFFFFFFFFFF AND DUP2 JUMP JUMPDEST PUSH0 SLOAD DUP2 JUMP JUMPDEST PUSH0 PUSH20 0xFFFFFFFFFFFFFFFFFFFFFFFFFFFFFFFFFFFFFFFF DUP3 AND SWAP1 POP SWAP2 SWAP1 POP JUMP JUMPDEST PUSH0 PUSH2 0x388 DUP3 PUSH2 0x35F JUMP JUMPDEST SWAP1 POP SWAP2 SWAP1 POP JUMP JUMPDEST PUSH2 0x398 DUP2 PUSH2 0x37E JUMP JUMPDEST DUP3 MSTORE POP POP JUMP JUMPDEST PUSH0 PUSH1 0x20 DUP3 ADD SWAP1 POP PUSH2 0x3B1 PUSH0 DUP4 ADD DUP5 PUSH2 0x38F JUMP JUMPDEST SWAP3 SWAP2 POP POP JUMP JUMPDEST PUSH0 DUP2 SWAP1 POP SWAP2 SWAP1 POP JUMP JUMPDEST PUSH0 PUSH2 0x3DA PUSH2 0x3D5 PUSH2 0x3D0 DUP5 PUSH2 0x35F JUMP JUMPDEST PUSH2 0x3B7 JUMP JUMPDEST PUSH2 0x35F JUMP JUMPDEST SWAP1 POP SWAP2 SWAP1 POP JUMP JUMPDEST PUSH0 PUSH2 0x3EB DUP3 PUSH2 0x3C0 JUMP JUMPDEST SWAP1 POP SWAP2 SWAP1 POP JUMP JUMPDEST PUSH0 PUSH2 0x3FC DUP3 PUSH2 0x3E1 JUMP JUMPDEST SWAP1 POP SWAP2 SWAP1 POP JUMP JUMPDEST PUSH2 0x40C DUP2 PUSH2 0x3F2 JUMP JUMPDEST DUP3 MSTORE POP POP JUMP JUMPDEST PUSH0 PUSH1 0x20 DUP3 ADD SWAP1 POP PUSH2 0x425 PUSH0 DUP4 ADD DUP5 PUSH2 0x403 JUMP JUMPDEST SWAP3 SWAP2 POP POP JUMP JUMPDEST PUSH0 DUP2 SWAP1 POP SWAP2 SWAP1 POP JUMP JUMPDEST PUSH2 0x43D DUP2 PUSH2 0x42B JUMP JUMPDEST DUP3 MSTORE POP POP JUMP JUMPDEST PUSH0 PUSH1 0x20 DUP3 ADD SWAP1 POP PUSH2 0x456 PUSH0 DUP4 ADD DUP5 PUSH2 0x434 JUMP JUMPDEST SWAP3 SWAP2 POP POP JUMP JUMPDEST PUSH0 DUP3 DUP3 MSTORE PUSH1 0x20 DUP3 ADD SWAP1 POP SWAP3 SWAP2 POP POP JUMP JUMPDEST PUSH32 0x4E6F7420656E6F75676820657468657200000000000000000000000000000000 PUSH0 DUP3 ADD MSTORE POP JUMP JUMPDEST PUSH0 PUSH2 0x4A0 PUSH1 0x10 DUP4 PUSH2 0x45C JUMP JUMPDEST SWAP2 POP PUSH2 0x4AB DUP3 PUSH2 0x46C JUMP JUMPDEST PUSH1 0x20 DUP3 ADD SWAP1 POP SWAP2 SWAP1 POP JUMP JUMPDEST PUSH0 PUSH1 0x20 DUP3 ADD SWAP1 POP DUP2 DUP2 SUB PUSH0 DUP4 ADD MSTORE PUSH2 0x4CD DUP2 PUSH2 0x494 JUMP JUMPDEST SWAP1 POP SWAP2 SWAP1 POP JUMP JUMPDEST PUSH32 0x4E487B7100000000000000000000000000000000000000000000000000000000 PUSH0 MSTORE PUSH1 0x12 PUSH1 0x4 MSTORE PUSH1 0x24 PUSH0 REVERT JUMPDEST PUSH32 0x4E487B7100000000000000000000000000000000000000000000000000000000 PUSH0 MSTORE PUSH1 0x11 PUSH1 0x4 MSTORE PUSH1 0x24 PUSH0 REVERT JUMPDEST PUSH0 PUSH2 0x538 DUP3 PUSH2 0x42B JUMP JUMPDEST SWAP2 POP PUSH2 0x543 DUP4 PUSH2 0x42B JUMP JUMPDEST SWAP3 POP DUP3 PUSH2 0x553 JUMPI PUSH2 0x552 PUSH2 0x4D4 JUMP JUMPDEST JUMPDEST DUP3 DUP3 DIV SWAP1 POP SWAP3 SWAP2 POP POP JUMP JUMPDEST PUSH0 PUSH2 0x568 DUP3 PUSH2 0x42B JUMP JUMPDEST SWAP2 POP PUSH2 0x573 DUP4 PUSH2 0x42B JUMP JUMPDEST SWAP3 POP DUP3 DUP3 MUL PUSH2 0x581 DUP2 PUSH2 0x42B JUMP JUMPDEST SWAP2 POP DUP3 DUP3 DIV DUP5 EQ DUP4 ISZERO OR PUSH2 0x598 JUMPI PUSH2 0x597 PUSH2 0x501 JUMP JUMPDEST JUMPDEST POP SWAP3 SWAP2 POP POP JUMP JUMPDEST PUSH0 PUSH2 0x5A9 DUP3 PUSH2 0x42B JUMP JUMPDEST SWAP2 POP PUSH2 0x5B4 DUP4 PUSH2 0x42B JUMP JUMPDEST SWAP3 POP DUP3 DUP3 SUB SWAP1 POP DUP2 DUP2 GT ISZERO PUSH2 0x5CC JUMPI PUSH2 0x5CB PUSH2 0x501 JUMP JUMPDEST JUMPDEST SWAP3 SWAP2 POP POP JUMP JUMPDEST PUSH0 PUSH0 REVERT JUMPDEST PUSH0 PUSH1 0xFF DUP3 AND SWAP1 POP SWAP2 SWAP1 POP JUMP JUMPDEST PUSH2 0x5EB DUP2 PUSH2 0x5D6 JUMP JUMPDEST DUP2 EQ PUSH2 0x5F5 JUMPI PUSH0 PUSH0 REVERT JUMPDEST POP JUMP JUMPDEST PUSH0 DUP2 MLOAD SWAP1 POP PUSH2 0x606 DUP2 PUSH2 0x5E2 JUMP JUMPDEST SWAP3 SWAP2 POP POP JUMP JUMPDEST PUSH0 PUSH1 0x20 DUP3 DUP5 SUB SLT ISZERO PUSH2 0x621 JUMPI PUSH2 0x620 PUSH2 0x5D2 JUMP JUMPDEST JUMPDEST PUSH0 PUSH2 0x62E DUP5 DUP3 DUP6 ADD PUSH2 0x5F8 JUMP JUMPDEST SWAP2 POP POP SWAP3 SWAP2 POP POP JUMP JUMPDEST PUSH0 DUP2 PUSH1 0x1 SHR SWAP1 POP SWAP2 SWAP1 POP JUMP JUMPDEST PUSH0 PUSH0 DUP3 SWAP2 POP DUP4 SWAP1 POP JUMPDEST PUSH1 0x1 DUP6 GT ISZERO PUSH2 0x68C JUMPI DUP1 DUP7 DIV DUP2 GT ISZERO PUSH2 0x668 JUMPI PUSH2 0x667 PUSH2 0x501 JUMP JUMPDEST JUMPDEST PUSH1 0x1 DUP6 AND ISZERO PUSH2 0x677 JUMPI DUP1 DUP3 MUL SWAP2 POP JUMPDEST DUP1 DUP2 MUL SWAP1 POP PUSH2 0x685 DUP6 PUSH2 0x637 JUMP JUMPDEST SWAP5 POP PUSH2 0x64C JUMP JUMPDEST SWAP5 POP SWAP5 SWAP3 POP POP POP JUMP JUMPDEST PUSH0 DUP3 PUSH2 0x6A4 JUMPI PUSH1 0x1 SWAP1 POP PUSH2 0x75F JUMP JUMPDEST DUP2 PUSH2 0x6B1 JUMPI PUSH0 SWAP1 POP PUSH2 0x75F JUMP JUMPDEST DUP2 PUSH1 0x1 DUP2 EQ PUSH2 0x6C7 JUMPI PUSH1 0x2 DUP2 EQ PUSH2 0x6D1 JUMPI PUSH2 0x700 JUMP JUMPDEST PUSH1 0x1 SWAP2 POP POP PUSH2 0x75F JUMP JUMPDEST PUSH1 0xFF DUP5 GT ISZERO PUSH2 0x6E3 JUMPI PUSH2 0x6E2 PUSH2 0x501 JUMP JUMPDEST JUMPDEST DUP4 PUSH1 0x2 EXP SWAP2 POP DUP5 DUP3 GT ISZERO PUSH2 0x6FA JUMPI PUSH2 0x6F9 PUSH2 0x501 JUMP JUMPDEST JUMPDEST POP PUSH2 0x75F JUMP JUMPDEST POP PUSH1 0x20 DUP4 LT PUSH2 0x133 DUP4 LT AND PUSH1 0x4E DUP5 LT PUSH1 0xB DUP5 LT AND OR ISZERO PUSH2 0x735 JUMPI DUP3 DUP3 EXP SWAP1 POP DUP4 DUP2 GT ISZERO PUSH2 0x730 JUMPI PUSH2 0x72F PUSH2 0x501 JUMP JUMPDEST JUMPDEST PUSH2 0x75F JUMP JUMPDEST PUSH2 0x742 DUP5 DUP5 DUP5 PUSH1 0x1 PUSH2 0x643 JUMP JUMPDEST SWAP3 POP SWAP1 POP DUP2 DUP5 DIV DUP2 GT ISZERO PUSH2 0x759 JUMPI PUSH2 0x758 PUSH2 0x501 JUMP JUMPDEST JUMPDEST DUP2 DUP2 MUL SWAP1 POP JUMPDEST SWAP4 SWAP3 POP POP POP JUMP JUMPDEST PUSH0 PUSH2 0x770 DUP3 PUSH2 0x42B JUMP JUMPDEST SWAP2 POP PUSH2 0x77B DUP4 PUSH2 0x5D6 JUMP JUMPDEST SWAP3 POP PUSH2 0x7A8 PUSH32 0xFFFFFFFFFFFFFFFFFFFFFFFFFFFFFFFFFFFFFFFFFFFFFFFFFFFFFFFFFFFFFFFF DUP5 DUP5 PUSH2 0x695 JUMP JUMPDEST SWAP1 POP SWAP3 SWAP2 POP POP JUMP JUMPDEST PUSH0 PUSH1 0x60 DUP3 ADD SWAP1 POP PUSH2 0x7C3 PUSH0 DUP4 ADD DUP7 PUSH2 0x38F JUMP JUMPDEST PUSH2 0x7D0 PUSH1 0x20 DUP4 ADD DUP6 PUSH2 0x38F JUMP JUMPDEST PUSH2 0x7DD PUSH1 0x40 DUP4 ADD DUP5 PUSH2 0x434 JUMP JUMPDEST SWAP5 SWAP4 POP POP POP POP JUMP JUMPDEST PUSH0 DUP2 ISZERO ISZERO SWAP1 POP SWAP2 SWAP1 POP JUMP JUMPDEST PUSH2 0x7F9 DUP2 PUSH2 0x7E5 JUMP JUMPDEST DUP2 EQ PUSH2 0x803 JUMPI PUSH0 PUSH0 REVERT JUMPDEST POP JUMP JUMPDEST PUSH0 DUP2 MLOAD SWAP1 POP PUSH2 0x814 DUP2 PUSH2 0x7F0 JUMP JUMPDEST SWAP3 SWAP2 POP POP JUMP JUMPDEST PUSH0 PUSH1 0x20 DUP3 DUP5 SUB SLT ISZERO PUSH2 0x82F JUMPI PUSH2 0x82E PUSH2 0x5D2 JUMP JUMPDEST JUMPDEST PUSH0 PUSH2 0x83C DUP5 DUP3 DUP6 ADD PUSH2 0x806 JUMP JUMPDEST SWAP2 POP POP SWAP3 SWAP2 POP POP JUMP INVALID LOG2 PUSH5 0x6970667358 0x22 SLT KECCAK256 DUP12 STATICCALL 0x27 DUP8 EXTDELEGATECALL PUSH30 0x4F87973DCD0E1426908212048E0DCA9C779C10042926DBF5380D64736F6C PUSH4 0x4300081D STOP CALLER "
				},
				"gasEstimates": {
					"creation": {
						"codeDepositCost": "434200",
						"executionCost": "infinite",
						"totalCost": "infinite"
					},
					"external": {
						"PurchaseDIT()": "infinite",
						"TokenOwner()": "2508",
						"paymentReceived()": "165",
						"token()": "infinite",
						"tokenPriceinWei()": "2490"
					}
				},
				"methodIdentifiers": {
					"PurchaseDIT()": "094b9041",
					"TokenOwner()": "2b141082",
					"paymentReceived()": "d50c4538",
					"token()": "fc0c546a",
					"tokenPriceinWei()": "fc71e97e"
				}
			},
			"storageLayout": {
				"storage": [
					{
						"astId": 21,
						"contract": "ERC20Sale/DITtokensale.sol:DITSale",
						"label": "tokenPriceinWei",
						"offset": 0,
						"slot": "0",
						"type": "t_uint256"
					},
					{
						"astId": 24,
						"contract": "ERC20Sale/DITtokensale.sol:DITSale",
						"label": "token",
						"offset": 0,
						"slot": "1",
						"type": "t_contract(ERC20)18"
					},
					{
						"astId": 26,
						"contract": "ERC20Sale/DITtokensale.sol:DITSale",
						"label": "TokenOwner",
						"offset": 0,
						"slot": "2",
						"type": "t_address"
					}
				],
				"types": {
					"t_address": {
						"encoding": "inplace",
						"label": "address",
						"numberOfBytes": "20"
					},
					"t_contract(ERC20)18": {
						"encoding": "inplace",
						"label": "contract ERC20",
						"numberOfBytes": "20"
					},
					"t_uint256": {
						"encoding": "inplace",
						"label": "uint256",
						"numberOfBytes": "32"
					}
				}
			},
			"userdoc": {
				"kind": "user",
				"methods": {},
				"version": 1
			}
		}
	}
}